:020000020000FC
:080000000C942A000C9422016B
:1000540004E00EBF0FE50DBF0E9453000E94610033
:100064000E949E000E948D000E94EF000E941B01CE
:100074000091600010916200011789F40091610001
:1000840010916300011759F404E60E9409010E94CB
:100094001B010E941B010E941B010E9461000C9421
:1000A40032000F930AE005BF00E40BBF0FEF07BB5C
:1000B40000EF01BB0CE70ABB78940F9108950F93EE
:1000C4001F9300E00093600002E0009361000F9230
:1000D4000F920E9478000F911F9100936200109379
:1000E40063000E948D001F910F9108950EB7F02FA9
:1000F4000DB7E02F00916A00102F0770043012F042
:10010400045003831873169516951695143012F03F
:100114001450148308950F931F93BF93AF93B0E0CB
:10012400A5E610E000E01D9303950530E1F7AF91DB
:10013400BF911F910F9108950F931F9300E00E94A8
:10014400CD00033041F40F930091600003950093B8
:1001540060000F9107C0003029F4009160000A95F7
:100164000093600001E00E94CD00033041F40F933E
:10017400009161000395009361000F9107C0003066
:1001840029F4009161000A95009361000E94D9004E
:100194001F910F91089507B900E8076006B906B1E9
:1001A400006406B906B106FDFDCF05B108950091BE
:1001B400600017E00E94E800009360000091610075
:1001C40015E00E94E80000936100089500601AF0B1
:1001D400011711F4025003950895FF27E0E60E94E9
:1001E400F800FF27E2E60E94F800089511910E94AA
:1001F40002011081E5E6E10F1081102B10830895B0
:1002040001E01A951AF0000F0C940301089530E2EE
:100214000E940D010895DC9A0E941601DC980E9448
:1002240016013A95C1F7089591E08CE20197F1F730
:1002340008958FEF9FEF8F5B95540196F1F7089522
:100244000F930FB70F931F93BF93AF93B0E0A5E63F
:1002540000916400A00F00E0B01F0C9108BB009156
:100264006400029502BB00916A00039500936A0042
:1002740000916400039500936400053019F400E0D4
:1002840000936400AF91BF911F910F910FBF0F9125
:020294001895BB
:00000001FF
