:020000020000FC
:1000000004E00EBF0FE50DBF0FEF07BB00E057E0A8
:10001000452FF2E0EAE4152F141BE10F04910032A2
:10002000A1F001540E942D000E9434000E9455004E
:100030000E9455004A9569F70E945A000E94550097
:100040000E9455000E945A00E3CF0E945A000E946D
:1000500055000E9455000C941A00F2E0E0E0E00F19
:1000600020E0F21F04910895000F20F40E94410047
:100070000E9441000E9441000E9455000038A1F7F3
:10008000089531E038BB30E20E9447000895C09ADD
:100090000E945000C0980E9450003A95C1F7089500
:1000A00091E08CE20197F1F7089530E038BB0E94AF
:1000B000650008950E9455000E9455000E94550059
:1000C0000E9455000E94550008958FEF9FEF8F53B7
:0800D0009C590196F1F7089517
:100200006088A8904028D0082078B048E0A0F06826
:0E021000D85010C030187098B8C8454E440041
:0C024A00534F5320534F5300454E4400C7
:00000001FF
